{
  "contractName": "EventTickets",
  "abi": [
    {
      "inputs": [
        {
          "internalType": "string",
          "name": "_description",
          "type": "string"
        },
        {
          "internalType": "string",
          "name": "_website",
          "type": "string"
        },
        {
          "internalType": "uint256",
          "name": "_ticketsForSale",
          "type": "uint256"
        }
      ],
      "payable": false,
      "stateMutability": "nonpayable",
      "type": "constructor"
    },
    {
      "anonymous": false,
      "inputs": [
        {
          "indexed": false,
          "internalType": "address",
          "name": "buyer",
          "type": "address"
        },
        {
          "indexed": false,
          "internalType": "uint256",
          "name": "numTickets",
          "type": "uint256"
        }
      ],
      "name": "LogBuyTickets",
      "type": "event"
    },
    {
      "anonymous": false,
      "inputs": [
        {
          "indexed": false,
          "internalType": "address",
          "name": "owner",
          "type": "address"
        },
        {
          "indexed": false,
          "internalType": "uint256",
          "name": "sales",
          "type": "uint256"
        }
      ],
      "name": "LogEndSale",
      "type": "event"
    },
    {
      "anonymous": false,
      "inputs": [
        {
          "indexed": false,
          "internalType": "address",
          "name": "buyer",
          "type": "address"
        },
        {
          "indexed": false,
          "internalType": "uint256",
          "name": "numTickets",
          "type": "uint256"
        }
      ],
      "name": "LogGetRefund",
      "type": "event"
    },
    {
      "constant": true,
      "inputs": [],
      "name": "readEvent",
      "outputs": [
        {
          "internalType": "string",
          "name": "description",
          "type": "string"
        },
        {
          "internalType": "string",
          "name": "website",
          "type": "string"
        },
        {
          "internalType": "uint256",
          "name": "totalTickets",
          "type": "uint256"
        },
        {
          "internalType": "uint256",
          "name": "sales",
          "type": "uint256"
        },
        {
          "internalType": "bool",
          "name": "isOpen",
          "type": "bool"
        }
      ],
      "payable": false,
      "stateMutability": "view",
      "type": "function"
    },
    {
      "constant": true,
      "inputs": [
        {
          "internalType": "address",
          "name": "buyer",
          "type": "address"
        }
      ],
      "name": "getBuyerTicketCount",
      "outputs": [
        {
          "internalType": "uint256",
          "name": "ticketsPurchased",
          "type": "uint256"
        }
      ],
      "payable": false,
      "stateMutability": "view",
      "type": "function"
    },
    {
      "constant": false,
      "inputs": [
        {
          "internalType": "uint256",
          "name": "numTickets",
          "type": "uint256"
        }
      ],
      "name": "buyTickets",
      "outputs": [
        {
          "internalType": "bool",
          "name": "",
          "type": "bool"
        }
      ],
      "payable": true,
      "stateMutability": "payable",
      "type": "function"
    },
    {
      "constant": false,
      "inputs": [],
      "name": "getRefund",
      "outputs": [
        {
          "internalType": "bool",
          "name": "",
          "type": "bool"
        }
      ],
      "payable": false,
      "stateMutability": "nonpayable",
      "type": "function"
    },
    {
      "constant": false,
      "inputs": [],
      "name": "endSale",
      "outputs": [
        {
          "internalType": "bool",
          "name": "",
          "type": "bool"
        }
      ],
      "payable": false,
      "stateMutability": "nonpayable",
      "type": "function"
    }
  ],
  "bytecode": "0x608060405260646001553480156200001657600080fd5b5060405162000d9a38038062000d9a833981810160405260608110156200003c57600080fd5b81019080805160405193929190846401000000008211156200005d57600080fd5b838201915060208201858111156200007457600080fd5b82518660018202830111640100000000821117156200009257600080fd5b8083526020830192505050908051906020019080838360005b83811015620000c8578082015181840152602081019050620000ab565b50505050905090810190601f168015620000f65780820380516001836020036101000a031916815260200191505b50604052602001805160405193929190846401000000008211156200011a57600080fd5b838201915060208201858111156200013157600080fd5b82518660018202830111640100000000821117156200014f57600080fd5b8083526020830192505050908051906020019080838360005b838110156200018557808201518184015260208101905062000168565b50505050905090810190601f168015620001b35780820380516001836020036101000a031916815260200191505b5060405260200180519060200190929190505050336000806101000a81548173ffffffffffffffffffffffffffffffffffffffff021916908373ffffffffffffffffffffffffffffffffffffffff1602179055508260026000019080519060200190620002229291906200027a565b5081600260010190805190602001906200023e9291906200027a565b508060028001819055506001600260050160006101000a81548160ff021916908315150217905550600060026003018190555050505062000329565b828054600181600116156101000203166002900490600052602060002090601f016020900481019282601f10620002bd57805160ff1916838001178555620002ee565b82800160010185558215620002ee579182015b82811115620002ed578251825591602001919060010190620002d0565b5b509050620002fd919062000301565b5090565b6200032691905b808211156200032257600081600090555060010162000308565b5090565b90565b610a6180620003396000396000f3fe60806040526004361061004a5760003560e01c806305aea97c1461004f5780632f36663714610164578063380d831b146101aa578063b2d5ae44146101d9578063edfb916714610208575b600080fd5b34801561005b57600080fd5b5061006461026d565b60405180806020018060200186815260200185815260200184151515158152602001838103835288818151815260200191508051906020019080838360005b838110156100be5780820151818401526020810190506100a3565b50505050905090810190601f1680156100eb5780820380516001836020036101000a031916815260200191505b50838103825287818151815260200191508051906020019080838360005b83811015610124578082015181840152602081019050610109565b50505050905090810190601f1680156101515780820380516001836020036101000a031916815260200191505b5097505050505050505060405180910390f35b6101906004803603602081101561017a57600080fd5b81019080803590602001909291905050506103e6565b604051808215151515815260200191505060405180910390f35b3480156101b657600080fd5b506101bf6105ef565b604051808215151515815260200191505060405180910390f35b3480156101e557600080fd5b506101ee610735565b604051808215151515815260200191505060405180910390f35b34801561021457600080fd5b506102576004803603602081101561022b57600080fd5b81019080803573ffffffffffffffffffffffffffffffffffffffff1690602001909291905050506109dd565b6040518082815260200191505060405180910390f35b6060806000806000600260000160026001016002800154600260030154600260050160009054906101000a900460ff16848054600181600116156101000203166002900480601f0160208091040260200160405190810160405280929190818152602001828054600181600116156101000203166002900480156103325780601f1061030757610100808354040283529160200191610332565b820191906000526020600020905b81548152906001019060200180831161031557829003601f168201915b50505050509450838054600181600116156101000203166002900480601f0160208091040260200160405190810160405280929190818152602001828054600181600116156101000203166002900480156103ce5780601f106103a3576101008083540402835291602001916103ce565b820191906000526020600020905b8154815290600101906020018083116103b157829003601f168201915b50505050509350945094509450945094509091929394565b6000600260050160009054906101000a900460ff16600115158115151461040c57600080fd5b6002800154838181111561041f57600080fd5b600154857f72240c1be87ee789414e12fc30844d39a55d1eaf3b8741489fe381ad2b6cdd473388604051808373ffffffffffffffffffffffffffffffffffffffff1673ffffffffffffffffffffffffffffffffffffffff1681526020018281526020019250505060405180910390a186600260040160003373ffffffffffffffffffffffffffffffffffffffff1673ffffffffffffffffffffffffffffffffffffffff1681526020019081526020016000206001016000828254019250508190555033600260040160003373ffffffffffffffffffffffffffffffffffffffff1673ffffffffffffffffffffffffffffffffffffffff16815260200190815260200160002060000160006101000a81548173ffffffffffffffffffffffffffffffffffffffff021916908373ffffffffffffffffffffffffffffffffffffffff160217905550866002800160008282540392505081905550866002600301600082825401925050819055506001955060008183029050600081340390503373ffffffffffffffffffffffffffffffffffffffff166108fc829081150290604051600060405180830381858888f193505050501580156105e2573d6000803e3d6000fd5b5050505050505050919050565b6000338073ffffffffffffffffffffffffffffffffffffffff166000809054906101000a900473ffffffffffffffffffffffffffffffffffffffff1673ffffffffffffffffffffffffffffffffffffffff161461064b57600080fd5b7f21e7b2f8578199ba3904a63b7cd799784c8cadde57dde563a7de95ef792e256c3360015460026003015402604051808373ffffffffffffffffffffffffffffffffffffffff1673ffffffffffffffffffffffffffffffffffffffff1681526020018281526020019250505060405180910390a16000600260050160006101000a81548160ff0219169083151502179055503373ffffffffffffffffffffffffffffffffffffffff166108fc600154600260030154029081150290604051600060405180830381858888f1935050505015801561072c573d6000803e3d6000fd5b50600191505090565b60007f492e1d962a477f77890c7cfdb563d7ddc58fee6505741794fa5700ada3c1604133600260040160003373ffffffffffffffffffffffffffffffffffffffff1673ffffffffffffffffffffffffffffffffffffffff16815260200190815260200160002060010154604051808373ffffffffffffffffffffffffffffffffffffffff1673ffffffffffffffffffffffffffffffffffffffff1681526020018281526020019250505060405180910390a1600260040160003373ffffffffffffffffffffffffffffffffffffffff1673ffffffffffffffffffffffffffffffffffffffff16815260200190815260200160002060000160009054906101000a900473ffffffffffffffffffffffffffffffffffffffff1673ffffffffffffffffffffffffffffffffffffffff166108fc600154600260040160003373ffffffffffffffffffffffffffffffffffffffff1673ffffffffffffffffffffffffffffffffffffffff16815260200190815260200160002060010154029081150290604051600060405180830381858888f193505050501580156108db573d6000803e3d6000fd5b50600260040160003373ffffffffffffffffffffffffffffffffffffffff1673ffffffffffffffffffffffffffffffffffffffff168152602001908152602001600020600101546002800160008282540192505081905550600260040160003373ffffffffffffffffffffffffffffffffffffffff1673ffffffffffffffffffffffffffffffffffffffff168152602001908152602001600020600101546002600301600082825403925050819055506000600260040160003373ffffffffffffffffffffffffffffffffffffffff1673ffffffffffffffffffffffffffffffffffffffff168152602001908152602001600020600101819055506001905090565b6000600260040160008373ffffffffffffffffffffffffffffffffffffffff1673ffffffffffffffffffffffffffffffffffffffff16815260200190815260200160002060010154905091905056fea265627a7a72315820b54c8572c37927a10ce00c1ff36b51c9049e17f5fbc5dcb814b192807c925d1464736f6c634300050c0032",
  "source": "pragma solidity ^0.5.0;\n\n    /*\n        The EventTickets contract keeps track of the details and ticket sales of one event.\n     */\n\ncontract EventTickets {\n\n    /*\n        Create a public state variable called owner.\n        Use the appropriate keyword to create an associated getter function.\n        Use the appropriate keyword to allow ether transfers.\n     */\n    address owner;\n\n    uint   TICKET_PRICE = 100 wei;\n\n\n    /*\n        Create a struct called \"Event\".\n        The struct has 6 fields: description, website (URL), totalTickets, sales, buyers, and isOpen.\n        Choose the appropriate variable type for each field.\n        The \"buyers\" field should keep track of addresses and how many tickets each buyer purchases.\n    */\n\n    struct Buyer {\n        address payable buyer;\n        uint totalTickets;\n    }\n\n    struct Event {\n        string description;\n        string website;\n        uint totalTickets;\n        uint sales;\n        mapping (address => Buyer) buyers;\n        bool isOpen;\n    }\n\n    Event myEvent;\n\n    /*\n        Define 3 logging events.\n        LogBuyTickets should provide information about the purchaser and the number of tickets purchased.\n        LogGetRefund should provide information about the refund requester and the number of tickets refunded.\n        LogEndSale should provide infromation about the contract owner and the balance transferred to them.\n    */\n    event LogBuyTickets(address buyer, uint numTickets);\n    event LogGetRefund(address buyer, uint numTickets);\n    event LogEndSale(address owner, uint sales);\n\n    /*\n        Create a modifier that throws an error if the msg.sender is not the owner.\n    */\n\n    modifier verifyCaller(address _address) { require(owner == _address); _;}\n\n    modifier checkIsOpen(bool _isOpen) {\n        require(_isOpen == true);\n        _;\n    }\n\n    modifier checkValue(uint _price, uint _numTickets) {\n        //refund them after pay for item (why it is before, _ checks for logic before func)\n        _;\n        uint totalValue = _price * _numTickets;\n        uint amountToRefund = msg.value - totalValue;\n        msg.sender.transfer(amountToRefund);\n    }\n\n    modifier checkTicketCount(uint _totalTickets, uint _numTickets) { require(_numTickets <= _totalTickets); _;}\n\n    /*\n        Define a constructor.\n        The constructor takes 3 arguments, the description, the URL and the number of tickets for sale.\n        Set the owner to the creator of the contract.\n        Set the appropriate myEvent details.\n    */\n    constructor(string memory _description, string memory _website, uint _ticketsForSale) public {\n        /* Set the owner to the creator of this contract */\n        owner = msg.sender;\n        myEvent.description = _description;\n        myEvent.website = _website;\n        myEvent.totalTickets = _ticketsForSale;\n        myEvent.isOpen = true;\n        myEvent.sales = 0;\n    }\n\n    /*\n        Define a function called readEvent() that returns the event details.\n        This function does not modify state, add the appropriate keyword.\n        The returned details should be called description, website, uint totalTickets, uint sales, bool isOpen in that order.\n    */\n    function readEvent()\n        public view\n        returns(string memory description, string memory website, uint totalTickets, uint sales, bool isOpen)\n    {\n        return (myEvent.description, myEvent.website, myEvent.totalTickets, myEvent.sales, myEvent.isOpen);\n    }\n\n    /*\n        Define a function called getBuyerTicketCount().\n        This function takes 1 argument, an address and\n        returns the number of tickets that address has purchased.\n    */\n    function getBuyerTicketCount(address buyer) public view returns(uint ticketsPurchased) {\n        return myEvent.buyers[buyer].totalTickets;\n    }\n\n    /*\n        Define a function called buyTickets().\n        This function allows someone to purchase tickets for the event.\n        This function takes one argument, the number of tickets to be purchased.\n        This function can accept Ether.\n        Be sure to check:\n            - That the event isOpen\n            - That the transaction value is sufficient for the number of tickets purchased\n            - That there are enough tickets in stock\n        Then:\n            - add the appropriate number of tickets to the purchasers count\n            - account for the purchase in the remaining number of available tickets\n            - refund any surplus value sent with the transaction\n            - emit the appropriate event\n    */\n    function buyTickets(uint numTickets)\n        public payable checkIsOpen(myEvent.isOpen) checkTicketCount(myEvent.totalTickets, numTickets) checkValue(TICKET_PRICE, numTickets) returns(bool) {\n        emit LogBuyTickets(msg.sender, numTickets);\n        myEvent.buyers[msg.sender].totalTickets += numTickets;\n        myEvent.buyers[msg.sender].buyer = msg.sender;\n        myEvent.totalTickets -= numTickets;\n        myEvent.sales += numTickets;\n        return true;\n    }\n\n    /*\n        Define a function called getRefund().\n        This function allows someone to get a refund for tickets for the account they purchased from.\n        TODO:\n            - Check that the requester has purchased tickets.\n            - Make sure the refunded tickets go back into the pool of avialable tickets.\n            - Transfer the appropriate amount to the refund requester.\n            - Emit the appropriate event.\n    */\n    function getRefund() public returns(bool) {\n        emit LogGetRefund(msg.sender, myEvent.buyers[msg.sender].totalTickets);\n        myEvent.buyers[msg.sender].buyer.transfer(myEvent.buyers[msg.sender].totalTickets * TICKET_PRICE);\n        myEvent.totalTickets += myEvent.buyers[msg.sender].totalTickets;\n        myEvent.sales -= myEvent.buyers[msg.sender].totalTickets;\n        myEvent.buyers[msg.sender].totalTickets = 0;\n        return true;\n    }\n\n    /*\n        Define a function called endSale().\n        This function will close the ticket sales.\n        This function can only be called by the contract owner.\n        TODO:\n            - close the event\n            - transfer the contract balance to the owner\n            - emit the appropriate event\n    */\n    function endSale() public verifyCaller(msg.sender) returns(bool) {\n        emit LogEndSale(msg.sender, myEvent.sales * TICKET_PRICE);\n        myEvent.isOpen = false;\n        msg.sender.transfer(myEvent.sales * TICKET_PRICE);\n        return true;\n    }\n}\n",
  "sourcePath": "/Users/jessewicks/Projects/event-ticket-exercise-jwicks31/contracts/EventTickets.sol",
  "compiler": {
    "name": "solc",
    "version": "0.5.12+commit.7709ece9.Emscripten.clang"
  },
  "schemaVersion": "3.0.20",
  "updatedAt": "2020-01-07T03:41:33.056Z",
  "devdoc": {
    "methods": {}
  },
  "userdoc": {
    "methods": {}
  }
}